:020000040800F2
:10000000A8080020CD0100087D0400082104000894
:100010007904000875020008C30800080000000009
:10002000000000000000000000000000C104000803
:1000300079020008000000007F040008D5050008D0
:10004000E7010008E7010008E7010008E7010008F0
:10005000E7010008E7010008E7010008E7010008E0
:10006000E7010008E7010008E7010008E7010008D0
:10007000E7010008E7010008E7010008E7010008C0
:10008000E7010008E7010008E7010008E7010008B0
:10009000E7010008E7010008E7010008E7010008A0
:1000A000E7010008E7010008E7010008E701000890
:1000B000E7010008E7010008E7010008E701000880
:1000C000E7010008E7010008E7010008E701000870
:1000D000E70100081908000851080008E7010008B6
:1000E000E7010008E7010008E7010008E701000850
:1000F000E7010008E7010008E7010008E701000840
:10010000E7010008E7010008E7010008E70100082F
:10011000E7010008E7010008E7010008E70100081F
:10012000E7010008E7010008E7010008E70100080F
:1001300000F002F800F03AF80AA090E8000C8244BF
:100140008344AAF10107DA4501D100F02FF8AFF29C
:10015000090EBAE80F0013F0010F18BFFB1A43F0A5
:10016000010318472C0800004C080000103A24BF77
:1001700078C878C1FAD8520724BF30C830C144BF0C
:1001800004680C607047000000230024002500264E
:10019000103A28BF78C1FBD8520728BF30C148BFEA
:1001A0000B6070471FB51FBD10B510BD00F033F8D0
:1001B0001146FFF7F7FF00F0C9FB00F051F803B458
:1001C000FFF7F2FF03BC00F07EFB00000948804708
:1001D00009480047FEE7FEE7FEE7FEE7FEE7FEE729
:1001E000FEE7FEE7FEE7FEE704480549054A064B41
:1001F00070470000D905000831010008A80200205E
:10020000A8080020A8040020A80400207047704718
:10021000704770477047754600F028F8AE460500F5
:100220006946534620F00700854618B020B5FFF711
:10023000DBFFBDE820404FF000064FF000074FF015
:1002400000084FF0000B21F00701AC46ACE8C009F4
:10025000ACE8C009ACE8C009ACE8C0098D467047FD
:100260000446AFF300802046FFF7A9FF004870471F
:100270004802002000BFFEE770472DE9F04102462A
:1002800000250026002000230024002791F803C049
:100290000CF00F0591F803C00CF0100CBCF1000F2E
:1002A00003D091F802C04CEA050591F800C0BCF1FA
:1002B000000F31D0146800202BE04FF0010C0CFA35
:1002C00000F3B1F800C00CEA03069E4220D183007F
:1002D0004FF00F0C0CFA03F7BC4305FA03FC4CEA91
:1002E000040491F803C0BCF1280F06D14FF0010CB3
:1002F0000CFA00FCC2F814C00AE091F803C0BCF18B
:10030000480F05D14FF0010C0CFA00FCC2F810C0E8
:10031000401C0828D1D31460B1F800C0BCF1FF0F15
:1003200034DD546800202EE000F1080C4FF0010885
:1003300008FA0CF3B1F800C00CEA03069E4221D182
:1003400083004FF00F0C0CFA03F7BC4305FA03FCD3
:100350004CEA040491F803C0BCF1280F05D100F168
:10036000080C08FA0CF8C2F8148091F803C0BCF12C
:10037000480F07D100F1080C4FF0010808FA0CF8FB
:10038000C2F81080401C0828CED35460BDE8F0812C
:10039000F0B50A46002300240021002500F00046A5
:1003A000B6F1004F02D11D4EF16901E01B4E71689C
:1003B000C0F3034583B200F44016B6F5401F08D1E0
:1003C00021F07061154E766826F07066134F7E60DE
:1003D00012E000F48016B6F5801F06D1032606FA57
:1003E00005F4A14341F0706106E0460D360103FAC1
:1003F00006F6B14341F0706122B1460D360103FAB1
:1004000006F6314300F00046B6F1004F02D1034E2C
:10041000F16101E0014E7160F0BD0000000001409B
:1004200000BFFEE708B50121102000F039F84FF4B5
:100430000050ADF8000010208DF8030003208DF867
:10044000020069460A48FFF718FF0121082000F062
:1004500027F82020ADF8000010208DF803000320BD
:100460008DF8020069460348FFF707FF08BD00004A
:1004700000100140000C014000BFFEE770477047CC
:1004800029B1064AD2690243044BDA6104E0034A07
:10049000D2698243014BDA617047000000100240CC
:1004A00029B1064A92690243044B9A6104E0034A67
:1004B00092698243014B9A6170470000001002402C
:1004C000704710B500F002F810BD00000CB5002018
:1004D000019000903348006840F480303149086052
:1004E00000BF3048006800F4003000900198401CC4
:1004F0000190009818B90198B0F5A06FF1D1294882
:10050000006800F4003010B10120009001E00020EC
:1005100000900098012843D12348006840F0100063
:10052000214908600846006820F00300086008467A
:10053000006840F0020008601A48406819494860A5
:100540000846406848600846406840F4806048605B
:100550000846406820F47C1048600846406840F433
:10056000E81048600846006840F08070086000BFEE
:100570000C48006800F000700028F9D00948406875
:1005800020F00300074948600846406840F0020038
:10059000486000BF0348406800F00C000828F9D10B
:1005A0000CBD00000010024000200240042808D1C9
:1005B0004FF0E021096941F004014FF0E0221161A0
:1005C00007E04FF0E021096921F004014FF0E0223B
:1005D000116170477047000010B51348006840F083
:1005E00001001149086008464068104908400E495A
:1005F0004860084600680E4908400B4908600846F4
:10060000006820F4802008600846406820F4FE005E
:1006100048604FF41F008860FFF753FF4FF0006001
:100620000449086010BD0000001002400000FFF8FF
:10063000FFFFF6FE08ED00E010B501210220FFF7F4
:100640001FFF01210920FFF72BFF01211348FFF7AE
:100650009FFE2020124908801820C870032088704F
:100660001048FFF70AFE63200F49888000200880A9
:1006700048800E4800F07EF870200D490880012067
:1006800048803220C88000200881084800F01EF809
:100690000121064800F00EF810BD000000081A0005
:1006A00014000020000C01401C0000200004004049
:1006B0002600002021B1028842F00102028004E0FD
:1006C00002884FF6FE731A400280704770B500240E
:1006D00000220023058C4FF6EF7635400584028C0E
:1006E0008388048B48F6FF752C404FF6FF452C405D
:1006F0000D884FF6FF7606EA05252C434FF6DF7589
:100700002A400D8906EA05152A434D8806EA051593
:100710002A43154DA84202D0144DA8421DD14FF6D0
:100720007F752A404D894FF6FF7606EA05152A4364
:100730004FF6BF752A408D8806EA05152A434FF605
:10074000FF352B404FF2FF752B408D8906EA85055A
:100750002B43CD8906EA85052B4383800483CD880E
:100760000587028470BD0000002C01400034014068
:1007700001877047002202881D4B98420ED01D4B06
:1007800098420BD0B0F1804F08D01B4B984205D057
:100790001A4B984202D01A4B984204D14FF68F73ED
:1007A0001A404B881A43174B984207D0164B984271
:1007B00004D04FF6FF431A40CB881A4302808B883F
:1007C00083850B8803850A4B98420BD0094B9842CE
:1007D00008D00E4B984205D00D4B984202D00D4BDD
:1007E000984201D10B7A038601238382704700006F
:1007F000002C01400034014000040040000800408B
:10080000000C004000100040001400400040014077
:10081000004401400048014010B540F225510A480B
:1008200000F020F870B1084800F046F8C1B207485F
:10083000D0F80421D0F80401401C044BC3F8040193
:100840001846815410BD00000038014038000020D7
:1008500010B540F22551024800F004F810BD000028
:100860000044004070B5024600240023002500200B
:1008700040F66A16B14200D100BFC1F3421501F043
:100880001F03012606FA03F3012D02D19689334096
:1008900006E0022D02D1168A334001E0968A3340E9
:1008A0000C12012606FA04F41688344013B10CB178
:1008B000012000E0002070BD01468888C0F30800D8
:1008C000704700BFFEE7014600BF704710B56FF0EC
:1008D0000400FFF76BFE0A4800680A49B0FBF1F01C
:1008E000094908700846007800EB4001C1EBC010D0
:1008F0004FF6FF7101EAC0000449088010BD0000F6
:100900000000002000127A00180000201A000020C9
:1009100001460D4A12884A434FF0E0235A610022F3
:100920009A6101221A6100BF4FF0E022106900F0C5
:1009300001021AB100F48032002AF5D000224FF0F3
:10094000E0231A619A6170471A000020FFF7BEFF8A
:10095000FFF768FDFFF770FE17E0642407E0A1B21F
:100960000A48FFF705FF0A20FFF7D2FF641E002C9C
:10097000F5DC002407E0A1B20448FFF7F9FE0A20E5
:10098000FFF7C6FF641C642CF5DBE6E700040040BB
:10099000B0090008000000201C0000006C010008E5
:1009A000CC0900081C0000208C0800008801000809
:1009B00000A24A040000000000000000010203043D
:0C09C0000607080900000000000000000D
:04000005080001CD21
:00000001FF
